:100000000C9462000C948A000C948A000C948A0070
:100010000C948A000C948A000C948A000C948A0038
:100020000C948A000C948A000C948A000C948A0028
:100030000C948A000C948A000C948A000C948A0018
:100040000C941C030C948A000C948C030C9466038F
:100050000C948A000C948A000C948A000C948A00F8
:100060000C948A000C948A000000000024002700F1
:100070002A0000000000250028002B0000000000DE
:1000800023002600290004040404040404040202DA
:100090000202020203030303030301020408102007
:1000A0004080010204081020010204081020000012
:1000B0000008000201000003040700000000000027
:1000C0000000BE0311241FBECFEFD8E0DEBFCDBFBE
:1000D00024E0ACE4B4E001C01D92AA3FB207E1F70E
:1000E00014E0A0E0B1E0EAEFF3E102C005900D9268
:1000F000AC34B107D9F710E0C2E6D0E004C02197D4
:10010000FE010E94FA07C136D107C9F70E942104F7
:100110000C94FB090C940000833081F028F48130AA
:1001200099F08230A9F008958730A9F08830C9F09D
:100130008430B1F4809180008F7D03C08091800075
:100140008F7780938000089584B58F7784BD08955C
:1001500084B58F7DFBCF8091B0008F778093B00006
:1001600008958091B0008F7DF9CFCF93DF93282F32
:1001700030E0F901E255FF4F8491F901E656FF4F57
:10018000D491F901EA57FF4FC491CC23A1F081111A
:100190000E948C00EC2FF0E0EE0FFF1FE458FF4FA1
:1001A000A591B491EC91ED2381E090E009F480E019
:1001B000DF91CF91089580E090E0FACF1F93CF9325
:1001C000DF93282F30E0F901E255FF4F8491F901C8
:1001D000E656FF4FD491F901EA57FF4FC491CC2363
:1001E000A9F0162F81110E948C00EC2FF0E0EE0F89
:1001F000FF1FEE58FF4FA591B4918FB7F894EC9183
:10020000111108C0D095DE23DC938FBFDF91CF9111
:100210001F910895DE2BF8CFCF93DF9390E0FC0180
:10022000E656FF4F24918A579F4FFC018491882303
:10023000D1F090E0880F991FFC01E859FF4FA5917C
:10024000B491FC01EE58FF4FC591D491623071F426
:100250009FB7F8943C91822F809583238C93E881FB
:100260002E2B28839FBFDF91CF9108958FB7F894ED
:10027000EC912E2B2C938FBFF6CF3FB7F894809143
:10028000550490915604A0915704B091580426B596
:10029000A89B05C02F3F19F00196A11DB11D3FBFBE
:1002A000BA2FA92F982F8827BC01CD01620F711D8D
:1002B000811D911D42E0660F771F881F991F4A9587
:1002C000D1F708958F929F92AF92BF92CF92DF9213
:1002D000EF92FF924B015C010E943D016B017C019A
:1002E0000E943D016C197D098E099F09683E73408B
:1002F00081059105A8F321E0821A9108A108B108AF
:1003000088EEC80E83E0D81EE11CF11C8114910414
:10031000A104B10429F7FF90EF90DF90CF90BF9038
:10032000AF909F908F900895AF92BF92CF92DF923F
:10033000EF92FF920F931F93CF93DF936C017B019A
:100340008B01040F151FEB015E01AE18BF08C0172B
:10035000D10759F06991D601ED91FC910190F0819E
:10036000E02DC6010995892B79F7C501DF91CF9161
:100370001F910F91FF90EF90DF90CF90BF90AF90C3
:100380000895FC01538D448D252F30E0842F90E09B
:10039000821B930B541710F0CF9608950197089580
:1003A000FC01918D828D981761F0A28DAE0FBF2F49
:1003B000B11D5D968C91928D9F5F9F73928F90E09F
:1003C00008958FEF9FEF0895FC01918D828D98170E
:1003D00031F0828DE80FF11D858D90E008958FEF4B
:1003E0009FEF0895FC01918D228D892F90E0805C14
:1003F0009F4F821B91098F739927089589E594E097
:100400000E94F20121E0892B09F420E0822F089557
:1004100080E090E0892B29F00E94FE0181110C946C
:1004200000000895FC01A48DA80FB92FB11DA35A97
:10043000BF4F2C91848D90E001968F739927848F04
:10044000A689B7892C93A089B1898C918370806427
:100450008C93938D848D981306C00288F389E02DC8
:1004600080818F7D80830895EF92FF920F931F9379
:10047000CF93DF93EC0181E0888F9B8D8C8D981357
:100480001AC0E889F989808185FF15C09FB7F89463
:10049000EE89FF896083E889F989808183708064AF
:1004A00080839FBF81E090E0DF91CF911F910F91FA
:1004B000FF90EF900895F62E0B8D10E00F5F1F4F09
:1004C0000F731127E02E8C8D8E110CC00FB607FC18
:1004D000FACFE889F989808185FFF5CFCE010E94A6
:1004E0001202F1CFEB8DEC0FFD2FF11DE35AFF4F00
:1004F000F0829FB7F8940B8FEA89FB898081806234
:10050000CFCF682F89E594E00C943402CF93DF932A
:10051000EC01888D8823B9F0AA89BB89E889F9891B
:100520008C9185FD03C0808186FD0DC00FB607FC50
:10053000F7CF8C9185FFF2CF808185FFEDCFCE0183
:100540000E941202E9CFDF91CF910895FC01019042
:100550000020E9F73197AF01481B590BBC0189E531
:1005600094E00C949401CF93DF930E94A602EC01D7
:1005700088E592E00E94A6028C0F9D1FDF91CF912B
:100580000895FC0180819181009711F00C949C08E2
:1005900008950F931F93CF93DF93EC018881998186
:1005A000009759F02A813B812617370730F081E008
:1005B000DF91CF911F910F9108958B016F5F7F4F56
:1005C0000E942509009759F0998388831B830A8329
:1005D0002C813D81232B59F7FC011082E8CF80E06C
:1005E000E7CFEF92FF920F931F93CF93DF93EC012E
:1005F0007B018A01BA010E94C902288139818111D7
:1006000014C02115310519F0C9010E949C081982F6
:1006100018821D821C821B821A82CE01DF91CF912B
:100620001F910F91FF90EF9008951D830C83B701E8
:10063000C9010E94F409F1CF1F920F920FB60F92D9
:1006400011242F933F938F939F93AF93BF938091E8
:10065000510490915204A0915304B09154043091EC
:10066000500423E0230F2D3758F50196A11DB11D2D
:10067000209350048093510490935204A093530408
:10068000B09354048091550490915604A09157045E
:10069000B09158040196A11DB11D8093550490930B
:1006A0005604A0935704B0935804BF91AF919F9103
:1006B0008F913F912F910F900FBE0F901F90189523
:1006C00026E8230F0296A11DB11DD2CF1F920F92D3
:1006D0000FB60F9211242F933F934F935F936F9315
:1006E0007F938F939F93AF93BF93EF93FF9389E58E
:1006F00094E00E941202FF91EF91BF91AF919F9100
:100700008F917F916F915F914F913F912F910F90BA
:100710000FBE0F901F9018951F920F920FB60F9259
:1007200011242F938F939F93EF93FF93E09169048C
:10073000F0916A048081E0916F04F091700482FD71
:100740001BC09081809172048F5F8F73209173041E
:10075000821741F0E0917204F0E0E75AFB4F958F69
:1007600080937204FF91EF919F918F912F910F9041
:100770000FBE0F901F9018958081F4CFE9E5F4E04B
:100780001382128288EE93E0A0E0B0E08483958328
:10079000A683B7838CED91E09183808385EC90E014
:1007A0009587848784EC90E09787868780EC90E03B
:1007B000918B808B81EC90E0938B828B82EC90E02C
:1007C000958B848B86EC90E0978B868B118E128EA6
:1007D000138E148E86E1E2E4F2E0AFE3B1E0019023
:1007E0000D928A95E1F786E1ECE2F2E0A8E5B1E04E
:1007F00001900D928A95E1F786E1E6E1F2E0A1E74A
:10080000B1E001900D928A95E1F786E1E0E0F2E037
:10081000AAE8B1E001900D928A95E1F786E1E2E461
:10082000F2E0A3EAB1E001900D928A95E1F786E14A
:10083000EAEEF1E0ACEBB1E001900D928A95E1F7C0
:100840000895CF93DF93CDB7DEB7CF54D1090FB65C
:10085000F894DEBF0FBECDBF789484B5826084BDAE
:1008600084B5816084BD85B5826085BD85B58160B4
:1008700085BD80916E00816080936E001092810032
:1008800080918100826080938100809181008160ED
:1008900080938100809180008160809380008091AE
:1008A000B10084608093B1008091B000816080933A
:1008B000B00080917A00846080937A0080917A0001
:1008C000826080937A0080917A00816080937A00C0
:1008D00080917A00806880937A001092C100E09144
:1008E0006904F0916A0482E08083E0916504F091EC
:1008F00066041082E0916704F09168048FEC8083B5
:1009000010927104E0916D04F0916E0486E0808392
:10091000E0916B04F0916C04808180618083E091B0
:100920006B04F0916C04808188608083E0916B049B
:10093000F0916C04808180688083E0916B04F09179
:100940006C0480818F7D808368EE73E080E090E0AE
:100950000E9462014E0188E3880E911C2C961FAE06
:100960001EAE2C972E961FAE1EAE2E9760961FAE13
:100970001EAE609744E050E06BE572E0CE01865B0E
:100980009F4F0E94F10280914F048111C2C21A82CE
:1009900019821C821B821E821D822C966EAD7FAD39
:1009A0002C976115710541F060964EAD5FAD609773
:1009B000CE0101960E94F102AD80BE80C980DA802E
:1009C0002CE3E22E21E0F22E10E000E0F70161813D
:1009D0007281A114B10491F461157105C9F0FB0194
:1009E00080818823A9F00F5F1F4FF9E1EF0EF11C02
:1009F0000630110559F780E792E01BC061157105BB
:100A000011F4F601EDCFC6010E94EB09892B59F7CD
:100A100089E1809FF001819FF00D1124E15CFE4F80
:100A200086E1DE01929601900D928A95E1F780E6CB
:100A300092E00E94B302CE0101960E94C1020AA177
:100A40001BA126961FAE1EAE269728961FAE1EAE81
:100A500028972A961FAE1EAE2A972C966EAD7FADB4
:100A60002C976115710549F060964EAD5FAD6097AA
:100A7000CE018C5B9F4F0E94F1021FAE1EAE2296EC
:100A80001FAE1EAE229724961FAE1EAE249750E0D6
:100A900040E06AE572E0CE01CE960E94F1022A960D
:100AA0004EAD5FAD2A9726966EAD7FAD269789E550
:100AB00094E00E94940183E892E00E94A6026801FB
:100AC000012E000CEE08FF08F7FEC4C08DE20E9464
:100AD000810222273327A9012C193D094E095F09FC
:100AE00019A2CE0181967C019AE0492E512C612CED
:100AF000712CCA01B901A30192010E94D807605D5F
:100B0000F70162937F01211531054105510589F7F0
:100B1000E114F10419F0C7010E94A60288E592E0F1
:100B20000E94A602C801880F991F0115F0E41F0753
:100B300010F08FEF9FEF0E9400080031110509F0BF
:100B4000A4C08CE191E090934E0480934D043E014B
:100B500084E2680E711C55245394F30161917191E4
:100B60003F016115710509F4B6C119AE18AE1BAE8F
:100B70001AAE1DAE1CAEFB0101900020E9F73197C3
:100B8000AF01461B570BC4010E94F1021A82198261
:100B90001C821B821E821D824BE050E067E872E0DF
:100BA000CE0101960E94F102C8ACD9ACC114D104A7
:100BB00009F472C0ECACFDACE114F104B9F08D8124
:100BC0009E81E80EF91EB701CE0101960E94C9026E
:100BD000882309F461C029813A818D819E81B60103
:100BE000820F931F0E94F409FE82ED824D815E8187
:100BF00069817A8189E594E00E94940188E592E018
:100C00000E94A602CE0101960E94C10283E992E0F1
:100C10000E94A602F12CE12CE016F1060CF088C02F
:100C20008CAD9DADE816F90628F4E8ADF9AD309726
:100C300009F03FC010924C04ECE4F4E08081883469
:100C400009F462C0CCF5873409F44EC0FFEFEF1A07
:100C5000FF0AE2CFA701960119A2CE0181967C017D
:100C60008AE0482E512C612C712CCA01B901A301D4
:100C700092010E94D807605DF70162937F01211500
:100C800031054105510589F743CF0E30110509F0B3
:100C90005ACF80E091E057CF89819A81009711F077
:100CA0000E949C081A8219821E821D821C821B824D
:100CB0009DCFEE0DFF1DC2CF8C3431F1863531F65C
:100CC000C0904D04D0904E04C701880F991FC80EE4
:100CD000D91E61E0F60180810E940C0161E0F601FD
:100CE00080810E94DE00B2CFC0904D04D0904E04AF
:100CF000C701880F991FC80ED91E61E0F6018081D7
:100D00000E940C0160E0EBCFC0904D04D0904E04E7
:100D1000C701880F991FC80ED91E60E0F6018081B7
:100D20000E94DE0062E0F60180810E940C018ECFFD
:100D300065E070E080E090E00E946201F12CE12C1F
:100D4000CC24CA94DC2CE016F1060CF051C08CAD1A
:100D50009DADE816F90620F4E8ADF9AD309771F4D1
:100D600010924C04ECE4F4E080818133F1F04CF417
:100D7000803359F0FFEFEF1AFF0AE5CFEE0DFF1DAC
:100D8000F3CF833431F18835A9F7A0904D04B090AA
:100D90004E04C701880F991FA80EB91E61E0F50126
:100DA00080810E940C0160E00FC0A0904D04B090C3
:100DB0004E04C701880F991FA80EB91E61E0F50106
:100DC00080810E940C0161E0F50180810E94DE00BB
:100DD000D1CFA0904D04B0904E04C701880F991F49
:100DE000A80EB91EF501C080D18061E08C2DD9CF4D
:100DF0008FEFC816D80691F062E08C2D0E940C018E
:100E00006AE070E080E090E00E94620161E08C2D79
:100E10000E940C0160E08C2D0E94DE0065E070E015
:100E200080E090E00E946201F12CE12CDD24D3945B
:100E3000E016F1060CF03FC08CAD9DADE816F9064A
:100E400020F4E8ADF9AD309769F410924C04ECE46D
:100E5000F4E08081883449F08C34E9F080E20E942B
:100E6000810215C0EE0DFF1DF4CFE0914D04F0910D
:100E70004E04C701880F991FE80FF91F80810E9457
:100E8000B500892B59F78CE40E948102D12C9FEF89
:100E9000E91AF90ACDCFE0914D04F0914E04C70153
:100EA000880F991FE80FF91F80810E94B500892BD8
:100EB000A9F288E4E9CF8FE992E00E94B302C4016D
:100EC0000E94C102D11001C0512C62E370E080E0A9
:100ED00090E00E9462016814790409F03ECE80918E
:100EE0004D0490914E040E949C0881EA92E05110BA
:100EF00002C08CEA92E00E94B302CE01CE960E941C
:100F0000C102CE018C5B9F4F0E94C10281E08093A1
:100F10004F0460E177E280E090E00E946201CE0140
:100F2000865B9F4F0E94C10280E090E0892B09F40C
:100F300015CD0E94FE01882309F410CD0E94000007
:100F40000DCD2F923F924F925F926F927F928F9230
:100F50009F92AF92BF92CF92DF92EF92FF920F9348
:100F60001F93CF93DF93CDB7DEB7CA1BDB0B0FB652
:100F7000F894DEBF0FBECDBF09942A88398848880F
:100F80005F846E847D848C849B84AA84B984C884A5
:100F9000DF80EE80FD800C811B81AA81B981CE0F9C
:100FA000D11D0FB6F894DEBF0FBECDBFED01089581
:100FB000A1E21A2EAA1BBB1BFD010DC0AA1FBB1F5D
:100FC000EE1FFF1FA217B307E407F50720F0A21BCF
:100FD000B30BE40BF50B661F771F881F991F1A943C
:100FE00069F760957095809590959B01AC01BD0166
:100FF000CF010895EE0FFF1F0590F491E02D0994A5
:101000000F931F93CF93DF938230910510F482E00A
:1010100090E0E091F804F091F90430E020E0B0E0D5
:10102000A0E0309799F42115310509F44AC0281B36
:10103000390B24303105D8F58A819B816115710502
:1010400089F1FB0193838283FE0111C040815181AC
:101050000281138148175907E0F04817590799F49E
:10106000109761F012960C93129713961C93329678
:10107000CF01DF91CF911F910F9108950093F80454
:101080001093F904F4CF2115310551F0421753079D
:1010900038F0A901DB019A01BD01DF01F801C1CFE0
:1010A000EF01F9CF9093F9048093F804CDCFFE01BE
:1010B000E20FF31F819391932250310939832883E2
:1010C000D7CF2091F6043091F704232B41F42091DF
:1010D000D4013091D5013093F7042093F604209188
:1010E000D2013091D3012115310541F42DB73EB71E
:1010F0004091D6015091D701241B350BE091F604A5
:10110000F091F704E217F307A0F42E1B3F0B28170A
:10111000390778F0AC014E5F5F4F2417350748F070
:101120004E0F5F1F5093F7044093F6048193919301
:101130009FCFF0E0E0E09CCFCF93DF930097E9F002
:10114000FC01329713821282A091F804B091F90445
:10115000ED0130E020E01097A1F420813181820F71
:10116000931F2091F6043091F7042817390709F0EE
:1011700061C0F093F704E093F604DF91CF910895F6
:10118000EA01CE17DF07E8F54A815B819E01411530
:101190005105B1F7E901FB83EA8349915991C40FE5
:1011A000D51FEC17FD0761F4808191810296840FB1
:1011B000951FE90199838883828193819B838A8328
:1011C000F0E0E0E012968D919C9113970097B9F5AD
:1011D0002D913C911197CD010296820F931F209182
:1011E000F6043091F7042817390739F6309751F58E
:1011F0001092F9041092F804B093F704A093F60447
:10120000BCCFD383C28340815181840F951FC817FF
:10121000D90761F44E5F5F4F88819981480F591F4C
:10122000518340838A819B81938382832115310579
:1012300009F0B0CFF093F904E093F8049ECFFD01DC
:10124000DC01C0CF13821282D7CFB0E0A0E0EBE286
:10125000F9E00C94A3078C01009751F4CB010E9494
:1012600000088C01C801CDB7DEB7E0E10C94BF07E0
:10127000FC01E60FF71F9C0122503109E217F3072A
:1012800008F49DC0D901CD91DC911197C617D707FD
:1012900098F0C530D10530F3CE0104978617970733
:1012A00008F3C61BD70B2297C193D1936D937C9300
:1012B000CF010E949C08D6CF5B01AC1ABD0A4C013D
:1012C0008C0E9D1EA091F804B091F904512C412C74
:1012D000F12CE12C109731F58091F6049091F704F0
:1012E0008815990509F05CC04616570608F058C0E5
:1012F0008091D2019091D301009741F48DB79EB7B0
:101300004091D6015091D701841B950BE817F9073E
:1013100008F055C0F093F704E093F604F9017183E7
:101320006083A0CF8D919C91119712966C9012972B
:1013300013967C901397A815B90559F56C0142E0F6
:10134000C40ED11CCA14DB0420F1AC014A195B099C
:10135000DA011296159780F062827382518340837E
:10136000D9016D937C93E114F10471F0D7011396C8
:10137000FC93EE93129776CF22968C0F9D1FF90166
:1013800091838083F301EFCFF093F904E093F804A5
:1013900069CF4816590608F42C017D01D3019ACF74
:1013A000CB010E9400087C01009749F0AE01B80112
:1013B0000E94E209C8010E949C08870153CF10E0F7
:1013C00000E050CFFB01DC0102C001900D924150C2
:1013D0005040D8F70895FB01DC018D9101908019F0
:1013E0000110D9F3990B0895FB01DC0101900D92D6
:0A13F0000020E1F70895F894FFCF04
:1013FA000700080009000A000B000C001500050090
:10140A000400030002000D000E000F000600070092
:10141A00080009000A000B000C0015000500040072
:10142A00030002000D000E000F001000003104003E
:10143A0000000000000000000000000000000000A2
:10144A000000000000013604000000000000000057
:10145A000000000000000000000000000000023B45
:10146A00040000000000000000000000000000006E
:10147A0000000000000000035B0200000000000002
:10148A000000000000000000000000000000000052
:10149A0004400400000000000000000000000000FA
:1014AA0000000000000000000004450400000000E5
:1014BA000000000000000000000000000000000022
:1014CA0000000000FA0480000000000034029401C9
:1014DA00C1018602F201D001E4011000B602C7027E
:1014EA00D802E9020000000000000000000000002D
:1014FA000E00FA0209031803270300000000000087
:10150A0000000000000010003603470358030000E3
:10151A000000000000000000000000001000690345
:10152A007A038B039C03AD03BE03CF03E003F103ED
:10153A0002040E0013042204000000000000000050
:10154A0000000000000000000D0A003734333200AA
:10155A004368697020656E636F6E747261646F00B0
:10156A0043686970204E4F20656E636F6E747261B6
:10157A00646F00202D20005369676E616C496E20EC
:10158A003A2000526573706F6E7365203A20003BF3
:10159A0000494320697320474F4F4400494320695B
:1015AA007320424144003030304C4848484748484C
:1015BA00484C303030560030303148484C48474863
:1015CA004C48483130305600303130484C48484752
:1015DA0048484C4830313056003031314848484C40
:1015EA00474C484848313130560030304C30304C46
:1015FA00474C30304C303056003031483031484753
:10160A004831304831305600313048313048474847
:10161A00303148303156003131483131484748314C
:10162A003148313156003030484848484347303015
:10163A00313131313056003030484C484C43473014
:10164A00303031303130560030304C484C48434706
:10165A003030313031303056004C484848484848DC
:10166A0047484848303030305600484C4848484887
:10167A00484748484830303031560048484C484876
:10168A004848474848483030313056004848484C66
:10169A004848484748484830303131560048484859
:1016AA00484C484847484848303130305600484846
:1016BA004848484C48474848483031303156004835
:1016CA0048484848484C4748484830313130560025
:1016DA0048484848484848474C48483031313156CC
:1016EA00004848484848484847484C483130303014
:1016FA005600484848484848484748484C313030DE
:10170A003156003048304830484748304830483031
:10171A005600314C314C314C474C314C314C3156DE
:10172A00003734303600373434320034303736003C
:0C173A00373430340037343133390000CC
:00000001FF
